:100000000C9436020C9453020C9453020C94360C4C
:100010000C9453020C9453020C9453020C9453020C
:100020000C9453020C9453020C9453020C945302FC
:100030000C9453020C9419050C94D5050C9453029E
:100040000C9453020C9453020C9448090C945302E0
:100050000C94DE1E0C9453020C944B1E0C94530211
:100060000C9453020C9453020C9453020C945302BC
:100070000C94F0160C941C170C9453020200080008
:1000800012001F003100470060007E009F00C50085
:10009000EE001B014D018201BB01F80139027E0215
:1000A000C70213036403B90311046E04CE043305BD
:1000B0009B0507067706EC066407E0076008E4087E
:1000C0006B09F709870A1A0BB20B4E0CED0C900D59
:1000D000380EE30E920F4510FC10B711761239134B
:1000E0000014CB1499156C1643171D18FC18DE1953
:1000F000C41AAF1B9D1C8F1D851E7F1F7D207F2175
:1001000084228E239C24AE25C326DD27FA281B2AB1
:10011000412B6A2C972DC82EFD2F36317332B43304
:10012000F93442368E37DF38333A8C3BE83C493E6F
:10013000AD3F15418142F1436545DD465948D949F6
:100140005D4BE54C704E005094512B53C65466568F
:100150000958B0595B5B0B5DBE5E75602F62EE6344
:10016000B16578674269116BE46CBA6E9470737212
:1001700055743B762578137A067CFB7DF57FF381F9
:10018000F583FB850488128A238C398E52907092F5
:100190009194B696DF980C9B3D9D729FABA1E8A30E
:1001A00029A66DA8B6AA03AD53AFA8B100B45CB63A
:1001B000BDB821BB89BDF5BF65C2D9C451C7CDC982
:1001C0004CCCD0CE58D1E3D373D606D99EDB39DEE2
:1001D000D8E07BE322E6CEE87DEB2FEEE6F0A1F35C
:1001E00060F623F9E901B4048207550A2B0D0510C6
:1001F000E412C615AC18961B841E76216C24652764
:10020000632A652D6A30743382369339A83CC23F25
:10021000DF42004625494E4C7B4FAC52E1551A59FE
:10022000565C975FDC6224667169C16C15706E73F1
:10023000CA762A7A8E7DF6806284D287468BBE8EFD
:100240003992B9953D99C49C50A0DFA372A70AAB1F
:10025000A5AE44B2E7B58EB939BDE8C09BC452C85B
:100260000CCCCBCF8ED354D71FDBEDDEBFE296E6AE
:1002700070EA4EEE30F216F610FF00026007000042
:100280001000400011FF4000600700001100400016
:1002900012FF4000600700001200400010FF400005
:1002A00030F7000040000000400100004002000064
:1002B000507D000011FF000F6002000011000001DE
:1002C0006002000030FC0000800000004000FF00E1
:1002D0004001000040020000507D0000400000008E
:1002E0004001FF0040020000507D0000400000007F
:1002F000400100004002FF00507D000040008000EF
:100300004001000040020000507D0000400000005D
:100310004001800040020000507D000040000000CD
:100320004001000040028000507D000030E80000E5
:1003300000002202600700000001220260070000A6
:10034000000222026007000030FA000010FF0002E5
:10035000600700001000400011FF4000600700002F
:100360001100400012FF4000600700001200400032
:1003700010FF400030F70000400000004001000086
:100380004002000010FF0002600500001000400065
:1003900012FF4000600500001200400010FF400006
:1003A00030FA0000400000004002000040019600CA
:1003B000507D000040010000507D000030FC000036
:1003C00040000000400100004002000012FF004019
:1003D00060040000500200001200004060040000B1
:1003E0005006000012FF00406004000050020000B0
:1003F00012000040600400005032000030F40000A1
:100400008000000040010000400200004000960013
:10041000507D000040000000507D000030FC0000D6
:1004200040000000400100004002000010A0100049
:1004300011A0090012A008006007000010002000B1
:1004400011002000120020006007000030F80000BA
:10045000400100004002000040009600507D000076
:1004600040000000507D000030FC000011241FBE41
:10047000CFEFD0E1DEBFCDBF12E0A0E0B1E0E0EB16
:10048000F7E402C005900D92AE30B107D9F71DE038
:10049000AEE0B2E001C01D92A936B107E1F70E94BB
:1004A0005B020C94D6230C9400000E947B1780E022
:1004B00090E00895FFCFDF93CF9300D000D0CDB769
:1004C000DEB788E10FB6F894809360001092600068
:1004D0000FBE84B7877F84BF80916000886180935E
:1004E0006000109260002098289A29E288E190E04C
:1004F0000FB6F894A895809360000FBE209360001B
:10050000A89519821A821B821C8289819A81AB81EB
:10051000BC818A309105A105B105A0F489819A8139
:10052000AB81BC810196A11DB11D89839A83AB83E8
:10053000BC8389819A81AB81BC818A309105A105F8
:10054000B10560F3189997C08EE1809311020E9463
:10055000AA1FA89580911102853109F4A2C080914B
:1005600011028E3109F495C0A8950E94730484E0AD
:1005700090E00E94461780E091E09093660D809392
:10058000650D0E94E609A8950E94D1070E948E0B76
:1005900080911102853109F479C0809111028E3168
:1005A00009F46DC00E942814A8950E9494190E9415
:1005B000041E0E94D91380E060E00E94431CA895AD
:1005C0006091690D70916A0D80E090E00E948B202F
:1005D0000E94862070936A0D6093690D7894A895A7
:1005E0000E94C51F80911402813240F010921402C3
:1005F00080910E0285FD39C00E94E91C80910E0297
:1006000086FD30C080910E0282FD24C080910E02D2
:1006100081FF05C080910E028D7F80930E02809134
:100620000E0280FF10C080910E028E7F80930E021A
:10063000809140028823E1F480910E0283FFCFCFA6
:100640000E94E407CCCF0E94FA090E94211A0E945E
:100650006519C5CF0E94481580910E028B7F80934B
:100660000E02D4CF0E943615CDCF0E943E1FC6CFBA
:100670000E94BB04E1CF85E18093110268CF3399DA
:1006800091CF83E060E00E94221A8CCF339BF9CF98
:1006900084CF3B98439A0E949A1F86E00E94731F62
:1006A00063CF3B98439A60CF89E080938100EFE667
:1006B000F0E080818660808380E09AEF90938900EB
:1006C0008093880088EE9DEF90938B0080938A0042
:1006D0000895EF92FF920F931F93DF93CF9300D073
:1006E0000F92CDB7DEB79E012F5F3F4FD901EEE0ED
:1006F000F1E083E001900D928150E1F780E090E01D
:10070000AC01440F551F440F551F440F551FFA01EC
:10071000E451FD4F618170910403662309F443C0E5
:100720006F3F09F442C0769FB0011124672F4451F6
:100730005D4FFA01628301968330910509F7FF242A
:10074000F39461E040E050E0D901A60FB11D1C9187
:10075000E12FF0E0EE0FFF1FEE0FFF1FEE0FFF1F68
:10076000E451FD4F0281C901840F951FFC01708186
:10077000E72FF0E0EE0FFF1FEE0FFF1FEE0FFF1F42
:10078000E451FD4FE2810E1718F4FC0110837C93B5
:100790006F5F6330C9F66F2D6F5F633058F44F2D74
:1007A000F62E50E0D1CF60E0C2CF7F3F09F0BBCF43
:1007B0006FEFBDCFD901CE01049600E0FF2410E019
:1007C00068EE7DEFEE24EA942D9130E0220F331F86
:1007D000220F331F220F331FF901E451FD4F4281D5
:1007E0004423A1F142814F3F89F1053B80F44281CE
:1007F000453B68F0412F50E0FA01EE0FFF1FE40F78
:10080000F51FE452FD4F72836183E0821F5FF9019F
:10081000E451FD4F2281021708F056C02681F22ACA
:100820000281412F50E0E281F0E0EE0FFF1FE65819
:10083000FF4F25913491FA01EE0FFF1FE40FF51FD2
:10084000E452FD4F21833283F0821F5FA817B9075E
:1008500009F0BACF053B80F4812F90E0FC01EE0F48
:10086000FF1FE80FF91FE452FD4F88EE9DEF9283C2
:1008700081838FEF80831F5F1092E8021093E9025B
:100880001092EA0280E090E03FEFFC01EE0FFF1FC4
:10089000EE0FFF1FEE0FFF1FE451FD4F22812223B9
:1008A00019F026812095322301968330910569F74E
:1008B0003093EB020F900F900F90CF91DF911F912B
:1008C0000F91FF90EF9008952681F22A212F30E0BA
:1008D00021503040F901EE0FFF1FE20FF31FE452E9
:1008E000FD4FF082B3CF89E08093810080916F004B
:1008F000866080936F0080E09AEF909389008093E8
:10090000880088EE9DEF90938B0080938A008FEF94
:10091000809304031092060380E090E060E071E0B1
:1009200041E050E0DC01AA0FBB1FAA0FBB1FAA0FBA
:10093000BB1FFD01E451FD4F118213827583648357
:10094000AD50BD4F2C912E7F2C9310829A01082E12
:1009500002C0220F331F0A94E2F7268301968330E8
:10096000910501F70E94690382B1887F82B981B144
:10097000876081B9089580E090E09C01220F331FC9
:10098000220F331F220F331FF901E451FD4F518114
:1009900043815417D9F0A181518143815417D8F470
:1009A0006081718144815581460F571F5183408377
:1009B00041814A17F8F0518143814517D8F0F90178
:1009C000E451FD4F51814381541709F10196833061
:1009D000910599F6089551814381451780F740812B
:1009E000518164817581461B570B5183408341813E
:1009F000A417A0F4F901E451FD4F43814183108213
:100A0000F901E451FD4F518143815417F9F6F90181
:100A1000ED50FD4F208121602083D8CF518143814B
:100A2000541768F6F901E451FD4F43814183108268
:100A3000E7CF1F920F920FB60F9211242F933F937F
:100A40004F935F936F937F938F939F93AF93BF93D6
:100A5000CF93EF93FF938091EA02882309F092C02D
:100A600082B1887F82B992B18091EB0280958770C4
:100A7000892B82B9E0918400F0918500C091E80251
:100A80004C2F50E0BA01660F771FDB01A40FB51F92
:100A9000A452BD4F11962D913C911297E053F84FFF
:100AA0002E173F0760F5AC2F809184009091850050
:100AB00082179307C8F392B1460F571F44525D4FF8
:100AC000FA01808187708095892382B9AF5FCA2F30
:100AD000A093E80280918400909185004A2F50E015
:100AE000BA01660F771FFB01E40FF51FE452FD4FBB
:100AF000218132818053984F28173907A8F28091BD
:100B00000E02816080930E0280910E0284608093B9
:100B10000E028091E902C817C0F58C2F90E0ACED71
:100B2000B2E0FC01EE0FFF1FE80FF91FEA0FFB1FF9
:100B30008181928190938B0080938A002091E802BA
:100B4000822F90E0FC01EE0FFF1FE80FF91FEA0F64
:100B5000FB1F80811E968C931E972F5F1C962C93F3
:100B6000FF91EF91CF91BF91AF919F918F917F9125
:100B70006F915F914F913F912F910F900FBE0F900A
:100B80001F901895C091E802BFCF1092E8028091A3
:100B90000E02826080930E0288EE9DEF90938B0090
:100BA00080938A000E946903DBCF1F920F920FB6D9
:100BB0000F9211242F933F934F935F936F937F93E3
:100BC0008F939F93AF93BF93EF93FF9392B18091D5
:100BD000EA0287708095892382B92091E80280918A
:100BE000E902281730F5822F90E0FC01EE0FFF1F7D
:100BF000E80FF91FE452FD4F8181928190938B00A1
:100C000080938A0080818093EA022F5F2093E8021C
:100C1000FF91EF91BF91AF919F918F917F916F91D4
:100C20005F914F913F912F910F900FBE0F901F90AA
:100C300018951092E80280910E02826080930E0255
:100C400088EE9DEF90938B0080938A000E94690349
:100C5000DFCFFC0182819381019793838283009788
:100C6000D1F485898150858B90E0DC01AA0FBB1FF0
:100C7000AA0FBB1FA80FB91FAE0FBF1F16968D91ED
:100C80009C9117979183808318968D919C911997C9
:100C90009383828314820895FC01228133814581EC
:100CA000542F5770852F90E0822393230097F9F0FB
:100CB00020952523487F422B458385898150858B4C
:100CC00090E0DC01AA0FBB1FAA0FBB1FA80FB91F22
:100CD000AE0FBF1F16968D919C91179791838083BD
:100CE00018968D919C91199793838283148208950D
:100CF000FC01938180E02281820F911DA081B0E0F0
:100D0000382FA451BD4F5B968C93DB0156962C91E6
:100D1000569727FD32C0222349F002C0880F991F41
:100D20002A95E2F70097B1F59FEF3FEFA081B0E081
:100D30008181AA0FBB1FAA0FBB1FAA0FBB1FA45103
:100D4000BD4F13968C93A081B0E0AA0FBB1FAA0FD2
:100D5000BB1FAA0FBB1FA451BD4F14963C93149701
:100D6000E081F0E0EE0FFF1FEE0FFF1FEE0FFF1F01
:100D7000E451FD4F958380E00895332727FD30959A
:100D8000309521953F4F02C0969587952A95E2F7B9
:100D9000009711F0382FCACF90E031E0C7CFFC01A7
:100DA00081818093EF0282818093F7028381809317
:100DB000FF0280E00895FB01DC0111968C911197F0
:100DC000992787FD909597FD01979C01220F331F6E
:100DD000220F331F82819381820F931F938382831B
:100DE00080E00895DC011196EC911197F0E01296E5
:100DF0002C9112978CEE92E0EE0FFF1FEE0FFF1F6B
:100E0000EE0FFF1FE80FF91F21831196EC91119748
:100E1000F0E012962C911297EE0FFF1FEE0FFF1FBE
:100E2000EE0FFF1FE80FF91F238380E00895FC01F8
:100E3000DB01928180E02181820F911D58969C9365
:100E40008E93579756962C91569727FD33C02223A1
:100E500049F002C0969587952A95E2F7009711F41C
:100E600081E090E055964C915597242F30E0F901A0
:100E7000EE0FFF1FEE0FFF1FE20FF31FEA0FFB1F26
:100E80002D913C9111973783268312962D913C9199
:100E900013973187208729E236E011963C932E93F1
:100EA00013969C938E9312974F5F55964C9355973C
:100EB00081E00895332727FD3095309521953F4FE8
:100EC00002C0880F991F2A95E2F7009759F68FEF15
:100ED0009FEFC8CFFB014589242F30E0D901AA0F2D
:100EE000BB1FAA0FBB1FA20FB31FAE0FBF1F2081D6
:100EF000318117963C932E93169722813381199650
:100F00003C932E9318972CE436E031832083DC0148
:100F100011968C911197828313824F5F458B81E0EC
:100F20000895FB018581887F858380E0089582E0B4
:100F300008950F931F93CF93DF93EC0109810E94D3
:100F400086208A81860F09F481E010E0000F111FCE
:100F5000000F111F000F111FF801E451FD4F848392
:100F60000E9486208B81861718F466958617E8F311
:100F7000E801C451DD4F6D830E9486208B81861766
:100F800031F423960E94862088818617D9F3F801D0
:100F9000E451FD4F638380E0DF91CF911F910F916A
:100FA00008951092C4021092C3021092C6021092C9
:100FB000C5028091C802887F88608093C802109221
:100FC000D8021092D902089580E090E050E09C0190
:100FD000220F331F220F331F220F331FF901ED5051
:100FE000FD4F408140FF0AC024513D4FD901169664
:100FF0002C911697522B20812E7F208301968330CF
:10100000910529F78091C802582B5770887F852B4E
:101010008093C80283FD0895E091C302F091C40259
:1010200083EC92E009950895EF92FF920F931F933E
:10103000DF93CF9300D000D0CDB7DEB78C017E0117
:101040000894E11CF11CF80182819381AC014F5F8F
:101050005F4FFC016491F8016483262F2F70298370
:101060009A012F5F3F4FFA0144914A83F90144915D
:101070004B832F5F3F4FF90124912C830496F80195
:101080009383828362956F70E62FF0E0EE0FFF1F6F
:10109000EF5EFE4F0190F081E02DC701B801099588
:1010A000823069F0813079F60F900F900F900F9099
:1010B000CF91DF911F910F91FF90EF900895F8016C
:1010C000858188608583F0CF5F926F927F928F9247
:1010D0009F92AF92BF92CF92DF92EF92FF920F93C7
:1010E0001F93DF93CF9300D000D0CDB7DEB76C0154
:1010F00022E0622E712C6C0E7D1E95E0A92EB12C83
:10110000AC0EBD1E4E010894811C911CF60182811B
:1011100093818C010F5F1F4F138302830E94C022B3
:10112000F6018483982F9F709983582E52948FE0F4
:1011300058227301C8010F5F1F4FF601138302830A
:101140000E94C022F70181937F01EA15FB0591F708
:10115000E52DF0E0EE0FFF1FEF5EFE4F0190F081F6
:10116000E02DC401B60109958230B1F0813071F6ED
:101170000F900F900F900F90CF91DF911F910F91D3
:10118000FF90EF90DF90CF90BF90AF909F908F90A7
:101190007F906F905F900895F601858188608583C8
:1011A000E7CF81E00895DC0114968C911497807F3D
:1011B000803509F444C040E050E0FA01E451FD4FAD
:1011C000938D292F30E056968C91569787FD21C03C
:1011D000882361F002C0220F331F8A95E2F72115A0
:1011E000310529F58FEF9FEF2FEF3FEFFA01EE0F5B
:1011F000FF1FEE0FFF1FEE0FFF1FE451FD4F948303
:101200008583358324834F5F5F4F43305105A9F6B3
:101210000895992787FD9095909581959F4F02C0DD
:10122000369527958A95E2F72115310519F0922F09
:10123000832FDCCF80E091E021E030E0D7CF5796DC
:101240008D919C91589756962C91569727FD10C0DA
:10125000222349F002C0969587952A95E2F70097D8
:1012600011F481E090E013969C938E931297089569
:10127000332727FD3095309521953F4F02C0880FC9
:10128000991F2A95E2F7009771F78FEF9FEFEBCF49
:1012900078941F920F920FB60F9211242F933F93C1
:1012A0004F935F936F937F938F939F9380910D03E1
:1012B00090910E0320911102253109F45BC0209119
:1012C00011022E3109F45AC040E050E020E03EEF18
:1012D00036BD60910C036F5F60930C036E3450F069
:1012E00096FD45C095FF43C090930B0380930A037E
:1012F00080E090E070910F03272730E0042E02C0B9
:10130000359527950A94E2F720FF12C070957093E7
:101310000F036A3118F580E090E0272F30E002C01B
:10132000359527954A95E2F720FF816010920C03CE
:1013300090930E0380930D03809114028F5F80932E
:1013400014029F918F917F916F915F914F913F9187
:101350002F910F900FBE0F901F9018950097E9F2F4
:10136000643330F396FDD9CF880F991FD6CF80E034
:1013700090E0C0CF29B146E050E0A9CF23B141E0D1
:1013800050E0A5CF0097C9F09695969596959170E7
:10139000809115028F5F809315022091230192178F
:1013A00031F0109215029093230181E008958A3064
:1013B00059F08B3021F080E0089580E008958AE0B4
:1013C0008093150281E0089581E0089584E085BD51
:1013D00080916E00816080936E0080911102853152
:1013E00039F0809111028E3109F00895299A0895FB
:1013F0005E9A08950F931F93DF93CF930F92CDB70B
:10140000DEB7F89400910A0310910B0310920B03BE
:1014100010920A037894C8010E94C209882339F403
:1014200081E00F90CF91DF911F910F910895980166
:10143000C901082E892F000C881F990B000C881FEA
:10144000991F182F1F71A90140955095440F452FE2
:10145000441F550B40742F73422B498384E291E063
:101460000E949017812F0E947B1789810E947B1711
:101470008AE291E00E949017153091F680910F0258
:10148000813009F44AC08981833109F459C082311D
:1014900009F45FC0803209F46EC0813209F474C06F
:1014A0008C3009F47AC0982F91509930F0F1803146
:1014B00009F485C0813109F48BC0803329F1873369
:1014C00009F48FC08F3009F495C08E3009F44AC0FA
:1014D0008C3209F447C0982F9E52923008F49CC079
:1014E0008C3309F463C0853209F460C0843109F497
:1014F0009CC0853109F4A2C08F3309F4A8C08B3297
:1015000009F481C080E08DCF87E160E070E040E0C9
:1015100050E00E94791180E084CF89818C3009F4F9
:10152000B9CF873309F07CCFB5CF998381E2BE0173
:101530006F5F7F4F40E050E00E94791180E071CFF3
:1015400082E160E070E040E050E00E94791180E0CC
:1015500068CF81E160E070E040E050E00E947911E6
:1015600080E05FCF8CE160E070E040E050E00E94FE
:10157000791180E056CF85E160E070E040E050E016
:101580000E94791180E04DCF86E160E070E040E09C
:1015900050E00E94791180E044CF80E160E070E08B
:1015A00040E050E00E94791180E03BCF8EE160E0A6
:1015B00070E040E050E00E94791180E032CF83E19A
:1015C00060E070E040E050E00E94791180E029CFB7
:1015D00084E160E070E040E050E00E94791180E03A
:1015E00020CF88E160E070E040E050E00E94791197
:1015F00080E017CF89E160E070E040E050E00E94B9
:10160000791180E00ECF80E260E070E040E050E0D1
:101610000E94791180E005CF8DE160E070E040E04C
:1016200050E00E94791180E0FCCE8AE160E070E039
:1016300040E050E00E94791180E0F3CE8BE160E061
:1016400070E040E050E00E94791180E0EACE8FE146
:1016500060E070E040E050E00E94791180E0E1CE6F
:10166000609181017091820142E350E00E94B022BA
:101670000895BC0180E193E00E949D209C0181E0DF
:101680002115310509F080E00895DC010D9000205E
:10169000E9F71197A81BA33358F0FC0111AA42E304
:1016A00050E060918101709182010E94C8220895EA
:1016B0004A2F50E04F5F5F4F60918101709182012E
:1016C0000E94C822089510924D038CE493E060E0DC
:1016D00070E042E050E00E94C8228CEE92E062E0AE
:1016E00070E04EE150E00E94C82283EC92E060E29C
:1016F00070E049E150E00E94C8228CED92E069E37D
:1017000070E040E150E00E94C8228EE092E069E47F
:1017100070E044E050E00E94C82208958CE493E019
:1017200060E070E042E050E00E94B02280914D0302
:101730008823A9F18FEF809304031092D902E3EC80
:10174000F2E084E198E09093C4028093C30288E7BA
:1017500092E0938382838091C802877F85838AEF9A
:101760008093ED028093EF0280910E028860809357
:101770000E0210920F0280910E028F7D80930E0256
:10178000609181017091820180E193E042E350E039
:101790000E94B022809110038F3F11F108958CEECA
:1017A00092E062E070E04EE150E00E94B02283ECF3
:1017B00092E060E270E049E150E00E94B0228CEDDE
:1017C00092E069E370E040E150E00E94B0228EE0D8
:1017D00092E069E470E044E050E00E94B022D0CF93
:1017E000A0E1B3E0E3E7F1E08EE001900D928150DB
:1017F000E1F7609181017091820180E193E042E321
:1018000050E00E94C82208959C01962F80E0E8E0F5
:1018100061E270E106C0220F331FE15069F0880FCA
:10182000991FAC014227532757FFF5CF220F331FD3
:1018300026273727E15099F7C901089582E58CBD25
:101840000895EA982C989EBD0DB407FEFDCF9EB575
:10185000592F40E08EBD0DB407FEFDCF2EB52C9A5A
:10186000EA9A30E0242B352BC901089578941F9211
:101870000F920FB60F9211242F933F934F935F93C4
:101880006F937F938F939F93AF93BF93EF93FF9348
:1018900080914E0380FF2BC0809116028436E8F1C0
:1018A00088E092E80E94210C0E94B41F80914E03B0
:1018B0008E7F80934E032091160280914F0390E01B
:1018C000029630E0821793070CF43FC0FF91EF912E
:1018D000BF91AF919F918F917F916F915F914F9148
:1018E0003F912F910F900FBE0F901F90189581FF81
:1018F000EDCFE0911602F0E0E15BFC4F808190E0DB
:10190000986B0E94210C80911602882359F18091D6
:101910001602815080931602D9CF0E94AF1F80E03B
:1019200090EB0E94210C90911602992319F48536B0
:1019300008F084E690911602E92FF0E0E15BFC4F9D
:1019400080839F5F90931602B6CF88E092E80E9452
:10195000210C0E94B41F80914E038E7F846080937F
:101960004E03B4CF80914E038D7F80934E0388E069
:1019700092E80E94210C0E94C01FA8CFDF93CF9352
:1019800000D000D0CDB7DEB784B1806B84B9269883
:101990002C9A2E9A82E58CBD2B9A2B9819821A824A
:1019A0001B821C8289819A81AB81BC81803A2BEB9E
:1019B00092072DE0A20720E0B207B8F489819A814E
:1019C000AB81BC810196A11DB11D89839A83AB8334
:1019D000BC8389819A81AB81BC81803AEBEB9E0705
:1019E000EDE0AE07E0E0BE0748F32B9A84E6EFEFA8
:1019F000F3EB3197F1F700C000008150C1F780EEA2
:101A000090EC0E94210C87ED90E80E94210C8BEA5B
:101A100092EC0E94210C81E89AEC0E94210C80E05B
:101A200090EE0E94210C80E098EC0E94210C87EF40
:101A300094EC0E94210C80E090E00E94210C8091A7
:101A40004E03887F80934E0322982A9A80916900E2
:101A5000806280936900EA9A0F900F900F900F9028
:101A6000CF91DF91089590E0880F991F829592950C
:101A7000907F9827807F9827907050E04770507033
:101A8000842B952B946970E063707070660F771FDC
:101A9000660F771F660F771F862B972B0E94210CEE
:101AA00008958036910558F02FE08034920720F495
:101AB000906A0E94210C08958FE39FE0F9CF80E6A1
:101AC00090EA0E94210C089522E08739920790F055
:101AD00025E18831920778F09C0140E050E06CEFFE
:101AE00072E485E090E00E94EE1FC9010197966CB8
:101AF0000E94210C08959C0140E050E060E678EAE5
:101B000080E090E00E941020C90101978068966CE7
:101B10000E94210C089590E087709070986970E0A1
:101B200062957295707F7627607F76277070862B1E
:101B3000972B0E94210C089580914E0382FD08C0CE
:101B400081FD04C080FF06C083E0089582E008950F
:101B500081E0089588EC92E80E94210C81E89AECDB
:101B60000E94210C83E89AEC0E94210C109216022C
:101B700080914E03816080934E0380E00895EF9240
:101B8000FF921F93CF93DF93DC0180914E0380FD82
:101B90002BC082FF22C08B7F80934E0380918301F4
:101BA000882349F510914F03112309F462C090E096
:101BB000292F30E0FD01E20FF31F215B3C4FE901CB
:101BC000898180839F5F80914F03981788F3DF910D
:101BD000CF911F91FF90EF9008958EEFDF91CF91FD
:101BE0001F91FF90EF9008958FEFDF91CF911F919C
:101BF000FF90EF90089510914F03E12EFF24612F85
:101C0000D0E040E050E081E290E1362F20E0C0E0FB
:101C100007C0440F551FCF5FC83071F0220F331F2C
:101C2000BA016227732777FFF4CF440F551F482767
:101C30005927CF5FC83091F7DF5F6D2F70E0E61650
:101C4000F7062CF0615B7C4FFB016081DECF615BAE
:101C50007C4FFB01808190E0DF5FED2FF0E0E15BE6
:101C6000FC4F308120E0822B932B8417950709F4D9
:101C70009BCF80E0DF91CF911F91FF90EF9008956F
:101C8000CF92DF92EF92FF920F931F93DF93CF9348
:101C900000D00F92CDB7DEB769838A839B830E9401
:101CA000BB1F20914E0369818A819B8121FDA8C0C1
:101CB000653608F098C0226020934E03262F275FD8
:101CC0002093160270911602E72FF0E0E15BFC4FC3
:101CD0002AEA2083172F1150E12FF0E0E15BFC4F3F
:101CE00020831150E12FF0E0E15BFC4F2083115085
:101CF000E12FF0E0E15BFC4F2DE220831150E12F5A
:101D0000F0E0E15BFC4F24ED20831150E12FF0E087
:101D1000E15BFC4F60831150562F40E000E020E073
:101D200030E0A1E2B0E107C0220F331F0F5F08309F
:101D300071F0440F551FFA01E227F327F7FFF4CFA4
:101D4000220F331F2A273B270F5F083091F76623A6
:101D500061F1A82FB92F4AEFE42EE70EE61A012F02
:101D600041E250E1CD01E02FF0E0E15BFC4FFD905E
:101D7000F0820150FC01D080CC2470E007C0220F1B
:101D8000331F7F5F783071F0CC0CDD1CC6018227D9
:101D9000932797FFF4CF220F331F242735277F5F28
:101DA000783091F70E15F1F6161BE12FF0E0E15BAC
:101DB000FC4F20831150A12FB0E0A15BBC4F3C939E
:101DC0001150A12FB0E0A15BBC4F8AEA8C93115057
:101DD000E12FF0E0E15BFC4F808388E392E80E9412
:101DE000210C80E001C084E00F900F900F90CF9104
:101DF000DF911F910F91FF90EF90DF90CF900895AA
:101E000082E0F2CF80914E0381FD02C080E0089510
:101E10008FEF089588E092E80E94210C80914E0394
:101E2000887F80934E0380E090E00E94210C08950B
:101E300008950E940A0F80E694E060911A020E94C1
:101E4000400E0895E0E2F2E020E030E09081981743
:101E5000E1F02F5F3F4F32962A303105B9F790916C
:101E60003402E92FF0E0EE0FFF1FE05EFD4F8083AC
:101E70006183892F8F5F809334028A3011F081E073
:101E800008951092340281E00895220F331FF90162
:101E9000E05EFD4F81E09181961729F0205E3D4F75
:101EA000F9016183089580E0F9CFEF92FF920F93DB
:101EB0001F93DF93CF9300D000D0CDB7DEB78C0156
:101EC00052E0E52EF12CE80EF91EFC0180818134F0
:101ED00081F0823409F45CC0803511F10F900F90CD
:101EE0000F900F90CF91DF911F910F91FF90EF9086
:101EF0000895918180911C028F5F981779F7209146
:101F0000BF038281281751F72091C00383812817CE
:101F100029F781E080931B0290931C028081D9CF26
:101F2000C7010E94311C882321F480911E0288235E
:101F300089F081E48983F80181818F5F8A838481BC
:101F40008C8385818B830E940A0FCE01019664E009
:101F50000E94400EF801848161810E94220F882333
:101F600029F480911E02882309F4B8CF4FEF54E082
:101F7000F801208530E0295F3F4FCA01B701A90170
:101F80000E94942080911702816080931702A6CF4F
:101F9000C7010E943A1C882321F480911E028823E5
:101FA00089F04FEF54E0F801208530E0295F3F4F82
:101FB000CA01B701A9010E94942080911702816093
:101FC00080931702F801808187CF81EC93E00E9413
:101FD000BF0D682F81508D3F68F10E94020F88234A
:101FE00041F580918401823051F1833080F488235F
:101FF00009F03FC080911902982F915090931902D7
:10200000882309F45DC081E08093840108958430C1
:1020100049F50E949C0D80911B02882309F059C04C
:1020200080911802815080931802882311F4109235
:102030008401089581EC93E00E94550FCECF8091EA
:102040001802815080931802882399F780E090E06D
:102050000E94210C90FDD7CF0E94190F83E080933E
:10206000840108958430A0F0853019F70E949C0DFA
:1020700008958130F1F680E090E00E94210C90FDFF
:10208000D8CF83E08093180282E080938401089582
:102090000E94020F882369F60E949C0D84E18093C0
:1020A000180210921B0280911D028823E9F0809192
:1020B000170284608093170285E08093840108955D
:1020C0008091170282608093170285E080938401DB
:1020D0000895809117028460809317020E949C0DDE
:1020E00085E080938401089584E0809384010895BD
:1020F00080911C028F5F80931C020895CF93DF9321
:10210000EC0180918401853021F081E0DF91CF9155
:102110000895109284019C81892F90FD32C020E5A2
:102120002093600410921D022AE0209319022B8153
:102130002093BF032A812093C00381FF06C081E062
:1021400080931F0282E089278C8380911C028093F8
:10215000610442E654E02E8130E0295F3F4FCA011E
:10216000BE01A9010E9494208E81875F80931A028C
:10217000809117028B7F8093170280E0DF91CF91CF
:10218000089522E42093600421E020931D0220930F
:102190001902D3CFCF93DF93EC0180911F028823E4
:1021A00011F18091170290E09C012670307021158A
:1021B0003105D9F01E828091620489830E942B1C14
:1021C00088830E942B1C8A830E942B1C8B838EEF9A
:1021D0008D838091170281FF17C088E08C8381E096
:1021E000DF91CF9108958091170280FD04C080E0B7
:1021F000DF91CF910895EFEFF4E087E0019009922D
:102200008150E1F781E0F4CF84E08C8381E0DF91BD
:10221000CF91089520911F02222369F02091170287
:1022200030E0A9014670507041155105D9F420FDE8
:1022300006C081E008952091170220FFFACF209177
:10224000050530E0295F3F4F4FEF54E0BA01A90187
:102250000E9494208091170291E0892780931702B1
:1022600080E008950E94CA1080911702897F8093B0
:10227000170210921F0280E0089581E0909184017E
:10228000953009F080E008951092EF028091EF02FE
:102290008093ED021092F7028091F7028093F5028D
:1022A0001092FF028091FF028093FD0208959093A7
:1022B000C4028093C3027093C6026093C5028091EA
:1022C000C802877F8093C8021092D8021092EF0252
:1022D0008091EF028093ED021092F7028091F70255
:1022E0008093F5021092FF028091FF028093FD021D
:1022F00008950F931F93DF93CF9300D0CDB7DEB730
:102300008B01823109F498C0813109F4A1C0853173
:1023100009F4BCC0863109F4EAC0803109F4D4C0A4
:10232000813209F4BEC0833109F4EAC0843109F472
:10233000F5C0873109F400C1883109F420C1893121
:1023400009F4D9C08C3109F408C18D3109F409C1EF
:102350008E3109F40FC18A3109F415C18B3109F4AA
:1023600032C18F3109F43FC1803209F44BC1863547
:1023700009F45CC1873409F416C1833709F450C1EC
:10238000833509F468C1843409F46BC1833409F4DA
:10239000BCC1823709F4B5C1883709F474C18F34E0
:1023A00009F4BEC18E3409F488C1873509F45FC1D0
:1023B000813509F4A0C1813409F499C1883509F443
:1023C00092C1863409F4D8C18D3409F4C8C184356A
:1023D00009F4B1C18B34A1F586E049835A830E9488
:1023E000731F00D000D000D0EDB7FEB73196498101
:1023F0005A81ADB7BEB712965C934E93119728E9F8
:1024000031E0338322839583848349835A830E94F6
:10241000A62049815A81FA01DF010D900020E9F7D9
:1024200011978A2F8E1BEDB7FEB736960FB6F8942C
:10243000FEBF0FBEEDBF05C0809104038823C9F421
:1024400080E00F900F90CF91DF911F910F91089531
:10245000809104038F3FA1F3809104038F5F8093E9
:10246000040380E00F900F90CF91DF911F910F91A7
:1024700008958091040381508093040380E00F90BD
:102480000F90CF91DF911F910F9108958FEF80935F
:10249000040380E00F900F90CF91DF911F910F9177
:1024A0000895DB01EC91E93058F6F0E0EE0FFF1FE4
:1024B000EE0FFF1FE356FE4F628173818081918191
:1024C0000E94571180E0BDCF80910F02813009F446
:1024D0003FC080910F028630C1F180910F0280933E
:1024E000100280E090E00E942E1580E0AACF1092AA
:1024F000040380E0A6CF85E080930F0280E0A1CFA7
:102500008091D90288300CF09BCF8F5F8093D902E5
:1025100083EC92E00E94D30880E093CF8091D902AF
:10252000893F0CF48DCF81508093D90283EC92E0E7
:102530000E94D30880E085CF80910F028230B1F0F5
:1025400082E080930F0280E07CCF10921002C9CF0E
:1025500084E080930F0280E074CF1092060380E045
:1025600070CF81E08093060380E06BCF10920F0262
:1025700080E067CF82E08093060380E062CF0E9414
:10258000630B80E05ECFE0910603F0E0EE0FFF1FEB
:10259000EE0FFF1FEE0FFF1FE451FD4F81818F5F94
:1025A000818380E04ECF80910F02DA018C9380917D
:1025B000D90211968C9311978091040312968C93F3
:1025C000129783E03ECFE0910603F0E0EE0FFF1F8D
:1025D000EE0FFF1FEE0FFF1FE451FD4F8181815071
:1025E000818380E02ECFE0910603F0E0EE0FFF1F25
:1025F000EE0FFF1FEE0FFF1FE451FD4F8FEF8183A2
:1026000080E01FCFE0910603F0E0EE0FFF1FEE0F1A
:10261000FF1FEE0FFF1FE451FD4F118280E011CF2D
:10262000FB0180818093D90280E00BCF20911102C1
:1026300000D000D000D0EDB7FEB73196ADB7BEB731
:1026400012965C934E93119785E891E09383828371
:1026500024831582DACEDB018C9180930F0280E017
:10266000F0CEFB0180818093040380E0EACEFB0181
:102670008081882309F458C080910E028062809383
:102680000E0280E0DECECB010E94390B882309F4D4
:10269000D7CED8010D900020E9F71197A01B0A0FA3
:1026A000111DF801818162810E944F1CD80113968F
:1026B0008C910E94241580E0C4CECB0149835A83BB
:1026C0000E94450B49815A81CA0101960E94300B34
:1026D00049815A81FA01DF010D900020E9F7119735
:1026E0008A2F8E1BAECE1092C9011092C8010E9493
:1026F000DB1680E0A6CE1092C9011092C80180E0DE
:10270000A0CE0E945A0280E09CCEDB018C911196F3
:102710006C91119712964C910E94131580E091CE06
:102720000E942A1580E08DCE80910E028F7D8093CD
:102730000E0280E086CEDB0113963C91139720E0D9
:1027400014968C911497280F311D8C9111966C91D1
:10275000119712964C910E945A1480E072CEFB01A0
:10276000338120E08481280F311D80816181428185
:102770000E94AD1480E065CEDB0113963C91139767
:1027800020E014968C911497280F311D8C9111968E
:102790006C91119712964C910E94FE1480E051CEDC
:1027A000AB01BC016F5F7F4FFC0180810E947911FA
:1027B0000895DF93CF9300D000D0CDB7DEB7198254
:1027C0001A821B821C8289819A81AB81BC818031F3
:1027D00027E2920720E0A20720E0B207B8F489813F
:1027E0009A81AB81BC810196A11DB11D89839A8319
:1027F000AB83BC8389819A81AB81BC81803127E224
:10280000920720E0A20720E0B20748F383E00E948D
:102810003D1A8823B1F00E94BE0C80EC96E00E9425
:10282000510D84E061E044E00E94330D80E09BE4C0
:102830000E94640D80E066E00E948B0D80E00E94A3
:10284000180F0F900F900F900F90CF91DF91089578
:1028500081E08093CA0180910E02869586958695C7
:10286000817080934002089580913D0290913E02D4
:10287000009741F08091C6019091C70190933E026C
:1028800080933D0280910F02823099F080910F0277
:10289000873079F080910F028093100282E080935C
:1028A0000F028091C6019091C70190933E028093E0
:1028B0003D020895CF92DF92EF92FF920F931F9304
:1028C000CF93DF938093EF026093F7024093FF0270
:1028D00040E950E00E94CC1F6B017C01C0E0D0E0D9
:1028E0008E01000F111F000F111F000F111FF801A3
:1028F000E451FD4F61818381681739F170E0681BF5
:10290000710977FD26C070E080E090E022E1660F5B
:10291000771F881F991F2A95D1F7A70196010E945A
:10292000EE1FF801E451FD4F358324832196C33017
:10293000D105B1F60E943414DF91CF911F910F9110
:10294000FF90EF90DF90CF90089588B18C7F88B989
:10295000EDCF709561957F4FD6CFEF92FF920F9399
:102960001F938093EF026093F7024093FF0240E0D1
:1029700050E060E0FA01EE0FFF1FEE0FFF1FEE0FB9
:10298000FF1FE451FD4F8181738190E0871B910906
:1029900097FD30C0681708F4682F4F5F5F4F4330D2
:1029A000510541F7E62EFF2400E010E042E1EE0C75
:1029B000FF1C001F111F4A95D1F740E950E00E940B
:1029C000CC1F9B01AC01C801B7010E94EE1F3093E0
:1029D000F1022093F0023093F9022093F802309331
:1029E0000103209300030E9434141F910F91FF9064
:1029F000EF900895909581959F4FCCCF8093EF02F3
:102A00006093F7024093FF023093F1022093F002AB
:102A10003093F9022093F8023093010320930003CE
:102A20000E9434140895F8948093ED028093EF028D
:102A30006093F5026093F7024093FD024093FF021A
:102A400078940E943414089580933F0282E080932A
:102A5000CA01089583E08093CA01089590934202C9
:102A60008093410283E080930F02089580910F02CA
:102A7000893069F080910F02883049F084E198E054
:102A800060E574E00E94571188E080930F0208957A
:102A9000EF92FF920F931F93CF93DF9380910F02DA
:102AA000853009F4D9C08630C8F1873009F41DC1DA
:102AB000873008F457C0883009F40DC1893009F413
:102AC000EFC08091C8019091C901009779F02091E1
:102AD000CB013091CC01A901415050405093CC0121
:102AE0004093CB012115310509F478C080913D0256
:102AF00090913E02009759F0019790933E02809387
:102B00003D02009721F48091100280930F02DF9123
:102B1000CF911F910F91FF90EF900895823009F4AB
:102B200093C0833098F0833009F4E8C0843049F6CC
:102B3000809105038093040380910E028860809346
:102B40000E028091100280930F02BBCF882309F000
:102B5000B8CF81E08093400280910E02886080931C
:102B60000E02AFCF8091350290913602A0913702CC
:102B7000B09138020196A11DB11D8093350290934A
:102B80003602A0933702B093380220913902309177
:102B90003A0240913B0250913C0282179307A407EE
:102BA000B50709F08ECF10923502109236021092BE
:102BB00037021092380280910403815080930403FD
:102BC00080910403882309F07CCF81E080930F0279
:102BD00080910E02877F80930E0273CF9093CC0179
:102BE0008093CB0186E00E94731F7C018091CA0113
:102BF000813009F4C7C01092AE0680913F028093E5
:102C0000AB060E942B1CCAEAD6E08093AA060E945B
:102C10002B1C8093AC068FEF8093AF068091CA0186
:102C2000813009F4B2C0823009F4C0C08091110231
:102C30008E3108F080C081E08E8382E48F838AEA3F
:102C400096E00E94571C52CF1092400280910E02D3
:102C5000877F80930E0235CF109235021092360294
:102C600010923702109238026091040384EE97E5C7
:102C700070E00E94DB1FCB01AA2797FDA095BA2F19
:102C80008093390290933A02A0933B02B0933C02A6
:102C9000809104038093050386E080930F0211CF97
:102CA00080914102909142029C012150304030932A
:102CB000420220934102009709F003CF12B883B774
:102CC000817F846083BF83B7816083BF889583B72A
:102CD0008E7F83BFF8CF88EB9BE090934202809376
:102CE000410289E080930F02ECCE81E080934002A4
:102CF00080910E02877F80930E02E3CE8091410285
:102D0000909142029C012150304030934202209326
:102D10004102009709F0D5CE80910403809305030A
:102D20001092040380910E02877F80930E0281E04F
:102D300080930F02C6CE00D000D000D0EDB7FEB712
:102D400031968E01095F1F4FADB7BEB712961C9327
:102D50000E93119781EC91E093838283F582E48254
:102D60000E94A620F80101900020E9F7E25BF640FE
:102D7000EE838DB79EB706960FB6F8949EBF0FBE32
:102D80008DBF5DCF8093AE0638CF8E01095F1F4F98
:102D900082E58F83CE0108960E94300BF8010190E6
:102DA0000020E9F7E25BF640EE8349CF8E01095F30
:102DB0001F4F89E4EECF60911003A8951092130283
:102DC000109212028091CA01833049F0862F0E942E
:102DD0004F1C81E080933F0283E08093CA010895F5
:102DE0001F920F920FB60F9211242F938F939F93E0
:102DF000EF93FF932091C8009091CE00E09185025F
:102E0000EF5FEF7180918602E817A1F0822F887141
:102E1000E0938502F0E0E957FD4F90838093A7028D
:102E2000FF91EF919F918F912F910F900FBE0F9077
:102E30001F90189582E0F2CF1F920F920FB60F925B
:102E400011248F939F93EF93FF939091430280916E
:102E500044029817A9F0E0914402EF5FEF73E0930A
:102E60004402F0E0EB5BFD4F80818093CE00FF9148
:102E7000EF919F918F910F900FBE0F901F9018951B
:102E80008091C9008F7D8093C900F1CF10924302D9
:102E900010924402109285021092860297FF04C09D
:102EA00022E02093C8009F779093CD008093CC00C0
:102EB00088E98093C90086E08093CA0008959091C4
:102EC000850280918602981791F0E0918602EF5F6B
:102ED000EF71E0938602F0E0E957FD4F8081909119
:102EE000A702392F20E0280F311DC901089520E0E5
:102EF00031E0C9010895209143022F5F2F73909113
:102F000044022917E1F3E22FF0E0EB5BFD4F8083F1
:102F1000209343028091C90080628093C900089584
:102F2000CF93DF93EC018881882331F021960E94B2
:102F30007B1789918823D9F7DF91CF910895CF939B
:102F4000DF93EC01FC018491882341F021960E94DB
:102F50007B17FE01219684918823C9F7DF91CF91D9
:102F60000895CF93C82F813629F08C2F0E947B17AC
:102F7000CF91089581E60E947B178C2F0E947B17CA
:102F8000CF910895CF93DF93EC018881882339F4A2
:102F900011C021960E947B178881882359F08136C1
:102FA000C1F70E947B17888121960E947B17888138
:102FB0008823A9F7DF91CF910895EF92FF920F93A5
:102FC0001F93CF93DF93EC017B0161157105C1F075
:102FD00000E010E008C00E947B170F5F1F4F0E1526
:102FE0001F0570F4219688818136A9F70E947B170E
:102FF00088810E947B170F5F1F4F0E151F0590F3EE
:10300000DF91CF911F910F91FF90EF90089581E68E
:103010000E947B1783E60E947B17089581E60E9439
:103020007B1782E60E947B170895CF93DF93EC0114
:1030300081E60E947B1783E60E947B17CE010E94E7
:10304000C21781E60E947B1782E60E947B17DF9100
:10305000CF910895CF93C82F81E60E947B1783E616
:103060000E947B178C2F0E94B11781E60E947B176C
:1030700082E60E947B17CF910895CF93DF93EC01F6
:103080000E94BB1F8C8182FD35C083FD2EC08E81C6
:10309000882321F480E0DF91CF91089581E60E949A
:1030A0007B1783E60E947B178C8180FD29C080E519
:1030B0000E94B11780E00E94B11789810E94B11768
:1030C00088810E94B1176E81CE01079670E00E9440
:1030D000DD1781E60E947B1782E60E947B170E9423
:1030E000C01F80E0DF91CF91089580ED91E00E94B4
:1030F0001518CDCF8DEC91E00E9415188C81C5CFAD
:1031000082E40E94B117D6CFCF93DF93EC01809178
:10311000A8029091A902009741F180919C05803509
:1031200051F0823441F01092A9021092A80280E07E
:10313000DF91CF9108958091AA02888380919D05A7
:1031400089838091AA028A830E942B1C8B8382E050
:103150008C8380919C05823461F08091A80282501A
:103160008E8381E0DF91CF91089580E0DF91CF9150
:10317000089583E08C83F1CFCF93DF93EC018091AE
:10318000A8029091A902009721F481E0DF91CF91EC
:103190000895CE010E948418BE01695F7F4F4E8161
:1031A0002EE935E0CB01B90150E00E949420109245
:1031B000A9021092A80280E0DF91CF91089581E0EA
:1031C00008951F93DF93CF9300D0CDB7DEB7182FAC
:1031D0004A8369830E94281489814A81642F0E944E
:1031E000431C1093AA020F900F90CF91DF911F9173
:1031F000089508958091AE028111089589E40E9496
:103200002A1881E08093AE0208958091A8029091DF
:10321000A90208958DE995E008951092A9021092EF
:10322000A8020895CF93DF930E945F17EC0190FFEF
:1032300006C020E030E0C901DF91CF9108950E94DF
:10324000AF1FC13639F18091AB02882331F0109263
:10325000AB02C33699F1C23621F18091AC02909154
:10326000AD02FC01E456FA4FC08301969093AD0283
:103270008093AC0221E08E309207DCF28DE091E089
:103280009093AD028093AC0220E030E0C901DF9161
:10329000CF9108958091AB02882351F01092AB0238
:1032A000DCCF0E94B41F2091AC023091AD02C3CF9D
:1032B00081E08093AB0220E030E0BDCF1092AD0200
:1032C0001092AC0220E030E0B6CF8091A80290913D
:1032D000A902009709F008950E9412190097D9F3E6
:1032E00020919C052934B9F0273539F0223769F04F
:1032F0009093A9028093A802089587E56DE975E08F
:1033000040E050E00E947911089501979093A9023E
:103310008093A802089580919D0560919E0540913B
:103320009F050E94E11808950E94041E0895CF93FE
:10333000DF93EC018C8181FF09C092E098279C8388
:1033400081E08093B00288818093AF0245E55CE024
:103350002E8130E0295F3F4FCA01BE01A9010E94C2
:1033600094208E8190E007960E94CF1D80E0DF912F
:10337000CF910895CF93DF93EC018091B30288231E
:1033800021F08091B002882391F40E94F01D8730D3
:10339000910520F480E0DF91CF910895E7E4FBE010
:1033A00087E0019009928150E1F781E0F4CF1E821D
:1033B0008091AF0289830E942B1C88830E942B1C62
:1033C0008A830E942B1C8B8384E08C8381E0DF91B5
:1033D000CF910895CF93DF93D82FC92F8091B30257
:1033E000882321F08091B0028823D1F40E94F01D3F
:1033F000009721F481E0DF91CF9108950E94F01DA4
:10340000AC0127E43BE08D2F9C2FB9010E94942052
:103410000E94D01D0E94D31D80E0DF91CF910895BE
:103420008D2F0E94BA191092B0021092B30280E060
:10343000DF91CF9108950E94C91D08950E942A1E10
:1034400008950895209100022223B1F0E3EDF1E008
:1034500021509FE0299F900111242E513E4F04C01E
:103460003F96E217F30741F090819817C9F76687F6
:103470003F96E217F307C1F70895609100026623B3
:1034800041F19091D301981791F0E2EEF1E020E044
:1034900030E007C02F5F3F4FA90190813F969817FA
:1034A00041F0922F9F5F9617A8F380E0089540E0C7
:1034B00050E0CA01880F991F840F951FFC01EE0F81
:1034C000FF1FEE0FFF1FE80FF91FED52FE4F86851D
:1034D000089580E0089560910002662341F1909183
:1034E000D301981791F0E2EEF1E020E030E007C060
:1034F0002F5F3F4FA90190813F96981741F0922F7F
:103500009F5F9617A8F38FEF089540E050E0CA013F
:10351000880F991F840F951FFC01EE0FFF1FEE0F00
:10352000FF1FE80FF91FED52FE4F858508958FEFBD
:103530000895CF9340910002442309F1C0E003C0F5
:10354000CF5FC417E0F42C2F30E0C901880F991F1A
:10355000820F931FFC01EE0FFF1FEE0FFF1FE80FFE
:10356000F91FED52FE4F8685882351F30184F285C1
:10357000E02D099540910002CF5FC41720F3CF9151
:103580000895982F9E5F923078F160910002662333
:10359000A1F09091D301981791F0E2EEF1E020E0D4
:1035A00030E007C02F5F3F4FA90190813F969817E9
:1035B00041F0922F9F5F9617A8F380E0089540E0B6
:1035C00050E0CA01880F991F840F951FFC01EE0F70
:1035D000FF1FEE0FFF1FE80FF91FED52FE4F86850C
:1035E000882321F481E0089581E008950780F08523
:1035F000E02D099508951F93CF93DF93182FEB01CA
:10360000909100029923A1F08091D3018117A9F034
:10361000E2EEF1E020E030E007C02F5F3F4FA9016C
:1036200080813F96811759F0822F8F5F8917A8F309
:1036300081E0DF91CF911F91089540E050E0CA01F1
:10364000880F991F840F951FFC01EE0FFF1FEE0FCF
:10365000FF1FE80FF91FED52FE4F0380F481E02DAC
:10366000CE0109951D83DF91CF911F910895FF929F
:103670000F931F93CF93DF938C014091000244235B
:1036800019F1FF2403C0F394F416F0F42F2D30E069
:10369000C901880F991F820F931FEC01CC0FDD1F0A
:1036A000CC0FDD1FC80FD91FCD52DE4F8E8588236A
:1036B00051F3ED81FE81C8010995882361F44091A1
:1036C0000002F394F41610F38EEFDF91CF911F9167
:1036D0000F91FF9008958881F80185838881DF919B
:1036E000CF911F910F91FF900895A0910002AA23FE
:1036F000A1F09091D301981791F0E2EEF1E020E073
:1037000030E007C02F5F3F4FA90190813F96981787
:1037100041F0922F9F5F9A17A8F381E0089540E04F
:1037200050E09A01220F331F240F351FF901EE0FCD
:10373000FF1FEE0FFF1FE20FF31FED52FE4F8685B6
:10374000882311F480E008950180F281E02DCB01FF
:10375000099508950F931F93CF93DF93182FEB01D3
:1037600050910002552309F448C0E3EDF1E0952F94
:1037700091508FE0989FC00111248E519E4F30E0F0
:1037800004C03F96E817F90759F020812117C9F7BF
:1037900023852223B1F331E03F96E817F907A9F713
:1037A000332359F100E003C00F5F051700F5202F08
:1037B00030E0C901880F991F820F931FFC01EE0FA3
:1037C000FF1FEE0FFF1FE80FF91FED52FE4F808124
:1037D000811751F38685882339F30180F281E02D2A
:1037E000CE010995509100020F5F051700F380E0AC
:1037F000DF91CF911F910F910895442341F55523F7
:10380000B1F300E003C00F5F051788F7202F30E009
:10381000C901880F991F820F931FFC01EE0FFF1F34
:10382000EE0FFF1FE80FF91FED52FE4F8081811749
:1038300051F38485882339F38685882321F3018019
:10384000F281E02DCE01099550910002DCCF552385
:1038500009F0A8CFCCCF8091B10208958091B20237
:10386000089521E0FC0193818091B102981320E03A
:10387000822F089521E0FC0191818091B20298137A
:1038800020E0822F08958093B1026093B2020E94DB
:103890000B1D8091B1026FEF0E949B1D08958093D4
:1038A000B1026093B2026FEF0E949B1D0895CF9307
:1038B000DF93EC0180910E0285FD15C08C8180FFA5
:1038C00022C08D818F3F91F0CE010E94191D9D81F4
:1038D0002091B1022A8329812B839F3F69F0BE0189
:1038E00040E00E94AA1BDF91CF9108958091B10220
:1038F0008A8389818B838FEFBE0141E00E94AA1BDE
:10390000DF91CF9108958091B1028A83CE010E9408
:103910008E1D8B83CE010E94261DBE010E94751B49
:10392000DF91CF910895CF93DF93EC010E94331D77
:103930008C8180FD0BC08091B1029981981769F14B
:103940009B81891721F1DF91CF910895CE010E94CB
:10395000571C89819091B202891711F0882331F4A4
:10396000CE01079660E070E00E94D0138C8181FF49
:10397000EACF84E08C831E82888189838091B102A2
:103980008883CE010E94571CDF91CF910895CE010C
:103990000E94571CDF91CF910895BE01695F7F4F50
:1039A000CB010E94D013882381F49C8191FFCBCF5F
:1039B00094E09C838E83888189838091B1028A837D
:1039C0008883CE010E94571CBECF9C8191FFF2CF0D
:1039D000EFCFCF930E94991A0E94A61D8AEA96E023
:1039E0000E94371BC82F8E3F41F08AEA96E00E9462
:1039F000261D0E94C11A882311F4CF9108958C2F9F
:103A00006AEA76E00E94FB1A8AEA96E06C2F0E942E
:103A1000931CCF910895E7E4F7E09EEF8FEF90833A
:103A200011828283138234962BE0E734F207B9F7D0
:103A30000895DC011296EC911297F0E0EE0FFF1F53
:103A4000EE0FFF1FE95BF84F80810895DC011396AC
:103A5000EC911397F0E0EE0FFF1FEE0FFF1FE95BF5
:103A6000F84F80810895FF920F931F93CF93DF93B8
:103A7000EC01062F1881862F0E946B1AF82E0E94E7
:103A80002B1C811711F01123B1F51A810E942B1CF8
:103A9000181759F1EA81EE2341F1F0E0EE0FFF1F14
:103AA000EE0FFF1FE95BF84F82818F15F0F0008366
:103AB0008A81E82FF0E0EE0FFF1FEE0FFF1FE95B9A
:103AC000F84F8183EA81F0E0EE0FFF1FEE0FFF1F3A
:103AD000E95BF84FF282EA81F0E0EE0FFF1FEE0F94
:103AE000FF1FE95BF84F8CE38383DF91CF911F9138
:103AF0000F91FF900895E12FF0E0EE0FFF1FEE0F02
:103B0000FF1FE95BF84F82818F1508F4BECF008359
:103B10008A818183F2828CE38383B7CFDC011196A3
:103B2000EC911197F0E0EE0FFF1FEE0FFF1FE95B26
:103B3000F84F81810895E82FF0E0EE0FFF1FEE0FA0
:103B4000FF1FE95BF84F6083818308958091010234
:103B5000909102029C012150304030930202209348
:103B600001020097A9F488EE93E0909302028093FB
:103B70000102E9E4F7E02FEF8181982F91509183C2
:103B8000882309F4208334968BE0E134F807A1F709
:103B900008959091B70281E0911180E00895089511
:103BA0001092B50208958091B5028823C1F48091E6
:103BB000B4028823A1F48091B702882381F48FB7DF
:103BC000F89490E99093C100449845981092B402FB
:103BD0001092B9021092B8021092B5028FBF0895E8
:103BE0008091B8029091B902009751F08091B5028E
:103BF000882331F02091B8023091B902C9010895AB
:103C000020E030E0C90108959FB7F8941092C500F4
:103C100089E08093C40086E08093C200E1ECF0E08C
:103C2000808188698083E0ECF0E080818D7F8083F3
:103C30009FBF3C9A3D9A1092BD021092BC02109216
:103C4000B9021092B8021092C2021092C1020E94F0
:103C5000D31D08958091BC029091BD02009721F080
:103C60008091B702882359F08091BC029091BD02E7
:103C7000009721F48091B502882351F00895809136
:103C8000B402882389F78091BC029091BD02ECCFE9
:103C90000E94D31D08951F920F920FB60F92112408
:103CA0002F933F934F935F936F937F938F939F9344
:103CB000AF93BF93EF93FF938091B702813009F4E4
:103CC00054C08091B7028230F9F08091B7028330FE
:103CD000D1F18091B702843009F454C08091B702C9
:103CE000853009F458C0FF91EF91BF91AF919F913A
:103CF0008F917F916F915F914F913F912F910F9095
:103D00000FBE0F901F9018958091C002882321F557
:103D10008091BE029091BF02FC01EB5AF34F2081CB
:103D20002C3509F446C020812093C600019690935B
:103D3000BF028093BE022091BC023091BD02821767
:103D4000930789F603C08CE58093C6008091B70283
:103D50008F5F8093B702C7CF8093C6001092C002D6
:103D60008091BE029091BF02E1CF80E38093C600B4
:103D70008091B7028F5F8093B7021092BF021092BA
:103D8000BE02B1CF81E38093C6008091B7028F5FFE
:103D90008093B702A8CF1092B70281E08093B60259
:103DA0001092BD021092BC028093B3020E94D31DF8
:103DB0009ACF2093C6002093C00295CF1F920F92F6
:103DC0000FB60F9211242F933F938F939F93EF93EE
:103DD000FF938091C00083FD1DC08091C00084FDD1
:103DE00019C02091C60031E03093B4022C35A9F1FE
:103DF0008091BB028823D9F48091B8029091B902D6
:103E0000FC01E95BF44F208301969093B902809303
:103E1000B80202C08091C600FF91EF919F918F91EF
:103E20003F912F910F900FBE0F901F9018951092F9
:103E3000BB022033E1F02133F9F61092B4028091F5
:103E4000B8029091B902009711F03093B5028FB784
:103E5000F8941092C1008FBFDFCF8091BB028823FE
:103E600019F01092BB02C8CF3093BB02D5CF30936C
:103E7000BA021092B9021092B802CECFCF93DF935C
:103E80000E942A1E0E940519EC010097C9F40E94A5
:103E9000F01DEC01009789F083E092E00E949017FA
:103EA00087E49BE0BE010E94DD1787E092E00E945C
:103EB00090170E94D01D0E94D31DDF91CF910895CD
:103EC0000E94C91D882319F30E940A19BC0125E527
:103ED0003CE0C901AE010E949420CE010E94CF1D9A
:103EE0000E940D19D4CFDF93CF930F92CDB7DEB7D9
:103EF00089830E94B91F90917C00907F90937C00F1
:103F000090917C008981982B90937C0080917A001D
:103F1000806480937A0080917A0086FDFCCF0E94B5
:103F2000BA1F2091780030917900C9010F90CF918C
:103F3000DF91089580EC80937C0087EC80937A0079
:103F400086E00E94731F86E00E94731F86E00E9435
:103F5000731F08950F9A0D9A0C9A159A08958FB7AA
:103F6000F894159A8FBF08958FB7F89415988FBF5E
:103F70000895089508958FB7F894149A8FBF0895FF
:103F80008FB7F89414988FBF08959FB7F89482B1B3
:103F9000805882B99FBF0895539FC001429FB001CE
:103FA000529F700D811D1124911D349F700D811D34
:103FB0001124911D089597FB092E07260AD077FD3D
:103FC00004D049D006D000201AF4709561957F4F37
:103FD0000895F6F7909581959F4F0895A1E21A2EC6
:103FE000AA1BBB1BFD010DC0AA1FBB1FEE1FFF1F9D
:103FF000A217B307E407F50720F0A21BB30BE40BED
:10400000F50B661F771F881F991F1A9469F7609533
:104010007095809590959B01AC01BD01CF010895ED
:1040200097FB092E05260ED057FD04D0D7DF0AD006
:10403000001C38F450954095309521953F4F4F4FD7
:104040005F4F0895F6F790958095709561957F4F35
:104050008F4F9F4F0895AA1BBB1B51E107C0AA1F9A
:10406000BB1FA617B70710F0A61BB70B881F991F19
:104070005A95A9F780959095BC01CD010895A0E0CF
:10408000B0E0E5E4F0E20C94A723EC0168817981CB
:104090008A819B81611571058105910521F464E296
:1040A00079ED8BE597E02DE133EF41E050E00E94A0
:1040B000102079018A0127EA31E440E050E00E94B3
:1040C00080235B016C01C801B7012CEE34EF4FEF88
:1040D0005FEF0E9480239B01AC012A0D3B1D4C1D0C
:1040E0005D1D57FF04C02150304040405048288398
:1040F00039834A835B835F77B901CA01CDB7DEB7E5
:10410000EAE00C94C3230E943F2008958AE092E0E5
:104110000E943F20089560930A0270930B028093DF
:104120000C0290930D020895FB01DC0102C0019086
:104130000D9241505040D8F70895FB01DC018D915C
:10414000019080190110D9F3990B0895AEE0B0E009
:10415000ECEAF0E20C94AD230D891E8986E08C8395
:104160001A8309838FEF9FE79E838D839E01275ECD
:104170003F4FCE0101966F89788DA9010E94C92019
:10418000EF81F885E00FF11F10822E96E4E00C9489
:10419000C923ACE0B0E0EFECF0E20C949F236C019B
:1041A0001B018A01FC0117821682838181FFD1C124
:1041B0002E010894411C511CF6019381F10193FDDD
:1041C000859193FF81911F01882309F4BEC1853237
:1041D00039F493FD859193FF81911F01853229F474
:1041E00090E0B6010E94F622E7CFEE24FF2420E003
:1041F0002032B0F48B3269F08C3228F4803251F0E6
:10420000833271F40BC08D3239F0803349F4216070
:104210002CC02260246029C0286027C0206125C0EE
:1042200027FD2CC0382F30533A3098F426FF08C0B1
:104230008E2D880FE82EEE0CEE0CE80EE30E15C066
:104240008F2D880FF82EFF0CFF0CF80EF30E206256
:104250000CC08E3221F426FD78C1206406C08C3655
:1042600011F4206802C0883649F4F10193FD85916C
:1042700093FF81911F01882309F0BACF982F95549D
:10428000933018F09052933028F40C5F1F4FFFE3E7
:10429000F9830DC0833631F0833771F0833509F02F
:1042A00060C022C0F801808189830E5F1F4F4201E8
:1042B00071E0A72EB12C16C062E0662E712C600E44
:1042C000711EF8018080918026FF03C06E2D70E082
:1042D00002C06FEF7FEFC4012C870E94EB225C01CC
:1042E00083012C852F7717C052E0652E712C600E4C
:1042F000711EF8018080918026FF03C06E2D70E052
:1043000002C06FEF7FEFC4012C870E94E0225C01A6
:104310002C852068830123FD20C008C080E290E046
:10432000B6012C870E94F622FA942C858F2D90E0FE
:10433000A816B90698F311C0F40127FD859127FF4F
:1043400081914F0190E0B6012C870E94F6222C85C6
:10435000F110FA940894A108B108A114B10461F70E
:10436000F1C0843611F0893649F527FF08C0F801FD
:1043700060817181828193810C5F1F4F09C0F801B8
:1043800060817181882777FD8095982F0E5F1F4F80
:104390004FE6B42EB22297FF09C090958095709594
:1043A00061957F4F8F4F9F4FF0E8BF2AA2012AE00F
:1043B00030E00E942223782E741845C0853731F4EE
:1043C0003FEEB32EB2222AE030E025C099EFB92E9D
:1043D000B2228F36C1F0803720F4883509F0B5C09D
:1043E0000DC0803721F0883709F0AFC002C020E14E
:1043F000B22AB4FE0BC084E0B82A08C0B4FE09C0DB
:10440000E6E0BE2A06C028E030E005C020E130E04A
:1044100002C020E132E0B7FE08C0F801608171817E
:10442000828193810C5F1F4F07C0F8016081718109
:1044300080E090E00E5F1F4FA2010E942223782EA1
:104440007418FFE7BF22B6FE0BC02EEFB2227E1417
:1044500038F4B4FE07C0B2FC05C08FEEB82202C02B
:10446000A72C01C0AE2C8B2D90E0B4FE0DC0FE0138
:10447000E70DF11D2081203319F4E9EEBE2209C0B9
:10448000A394B2FE06C004C086789070009709F02D
:10449000A3948B2C9924B3FC14C0B0FE0FC0AF14AE
:1044A00028F4E72CEF0CEA18AF2C08C0E72C06C064
:1044B00080E290E0B6010E94F622A394AF14C0F30C
:1044C00004C0AF1410F4FA1801C0FF2484FE0FC01A
:1044D00080E390E0B6010E94F62282FE1FC081FEBA
:1044E00003C088E590E010C088E790E00DC0C401EB
:1044F00086789070009791F081FC02C080E201C044
:104500008BE2B7FC8DE290E0B6010E94F62206C075
:1045100080E390E0B6010E94F622EA947E14C0F394
:104520007A94F201E70DF11D808190E0B6010E94BE
:10453000F6227720A9F706C080E290E0B6010E943B
:10454000F622FA94FF20C1F737CEF6012681378193
:1045500002C02FEF3FEFC9012C96E2E10C94BB2380
:10456000DC01CB01FC01F999FECF06C0F2BDE1BD33
:10457000F89A319600B40D9241505040B8F7089522
:10458000F999FECF92BD81BDF89A992780B508951B
:10459000DC01CB0103C02D910E94D3224150504039
:1045A000D0F70895262FF999FECF1FBA92BD81BD8D
:1045B00020BD0FB6F894FA9AF99A0FBE01960895A5
:1045C000FC010590615070400110D8F780959095DE
:1045D0008E0F9F1F0895FC016150704001900110E3
:1045E000D8F7809590958E0F9F1F08950F931F9376
:1045F000CF93DF938C01EB018B8181FF1BC082FF86
:104600000DC02E813F818C819D812817390764F46C
:10461000E881F9810193F983E88306C0E885F9858B
:10462000802F0995009731F48E819F8101969F8399
:104630008E8302C00FEF1FEFC801DF91CF911F9152
:104640000F910895FA01AA27283051F1203181F104
:10465000E8946F936E7F6E5F7F4F8F4F9F4FAF4F8A
:10466000B1E03ED0B4E03CD0670F781F891F9A1F9D
:10467000A11D680F791F8A1F911DA11D6A0F711D51
:10468000811D911DA11D20D009F468943F912AE05D
:10469000269F11243019305D3193DEF6CF01089545
:1046A000462F4770405D4193B3E00FD0C9F7F6CF76
:1046B000462F4F70405D4A3318F0495D31FD40523E
:1046C000419302D0A9F7EACFB4E0A69597958795D4
:1046D00077956795BA95C9F70097610571050895B3
:1046E0009B01AC010A2E069457954795379527955F
:1046F000BA95C9F7620F731F841F951FA01D0895F7
:10470000629FD001739FF001829FE00DF11D649FB5
:10471000E00DF11D929FF00D839FF00D749FF00D41
:10472000659FF00D9927729FB00DE11DF91F639FE2
:10473000B00DE11DF91FBD01CF01112408952F9285
:104740003F924F925F926F927F928F929F92AF9221
:10475000BF92CF92DF92EF92FF920F931F93CF936E
:10476000DF93CDB7DEB7CA1BDB0B0FB6F894DEBF05
:104770000FBECDBF09942A88398848885F846E842B
:104780007D848C849B84AA84B984C884DF80EE8075
:10479000FD800C811B81AA81B981CE0FD11D0FB67E
:1047A000F894DEBF0FBECDBFED010895F894FFCFA2
:1047B000000000020000000055020000000000019F
:1047C0000299077806CF06DB06F20617076A0791FB
:1047D00007970702616344524300616200060700C5
:1047E00000000000000000020103030500000000BB
:1047F00000000000000000000000000000000000B9
:10480000000000000003040601000000000000009A
:104810000000000000000000000000000000000098
:104820000000006E65776C616D702E6C6F63616C5B
:1048300000CD070105443D4D6172203236203230F3
:10484000313220483D256400563D2575001408A4EA
:10485000021408CC021408300314084C031408781E
:10486000031408A4031408C0031408040414082043
:1048700004563D2575009001E80301E80353440008
:10488000535400013D18BC188418DF18FA180101B0
:104890000A01029719EA19BA191B1A1E1A00001404
:1048A00001037E100A11CA103D11E50F00001E0120
:0E48B00003E803616352006162000100000032
:00000001FF
